:020000040000FA
:0400000027EF00F0F6
:100008005582FACF09F0FBCF0AF0F2AC0EEF00F000
:1000180010EF00F021EF00F00E01C1A316EF00F081
:1000280018EF00F021EF00F0C9A31DEF00F01FEF5B
:1000380000F021EF00F038EC0EF00AC0FBFF09C019
:10004800FAFF55921100D6EF0DF009EC0FF0580E9B
:100058000B6E160E0C6E000E0D6E29EC0FF036ECC2
:100068000FF0F28EF28C000E0C6E0A0E0B6E14EC72
:100078000FF0546E040E546444EF00F046EF00F0A5
:1000880050EF00F0000E0C6E0A0E0B6E000E0D6E97
:10009800F7EC0DF0000E546E000E0C6E0B0E0B6E8E
:1000A80014EC0FF0516E020E51645DEF00F05FEF3B
:1000B80000F069EF00F0000E0C6E0B0E0B6E000ED8
:1000C8000D6EF7EC0DF0000E516EA5EC0DF0C40EA0
:1000D8000001C76F090EC86F000EC96F000ECA6F06
:1000E800940E5424D96EDA6A000EDA22DF50B96F02
:1000F800B951196E1A6A3BEC0DF0660E0001BA6F21
:10010800760EB96FC10EE82EFED7B92FFCD7BA2FDD
:10011800FAD7990E5124D96EDA6A000EDA22DF5026
:100128000001B96FB951196E1A6A3BEC0DF04D50C8
:100138000001C75D4E50C8594F50C9595050CA594F
:10014800D8B0A9EF00F0ABEF00F0ADEF00F0A5ECF0
:100158000DF04C504B104A1009E1330E495CD8A001
:10016800B8EF00F0BAEF00F0DDEF02F0040E000186
:10017800CB6F000E4D6E000E4E6E000E4F6E000ED1
:10018800506EB80EC76F0B0EC86F000EC96F000E09
:10019800CA6FDDEF02F0C251C111C01109E1330E7F
:1001A800BF5DD8A0DAEF00F0DCEF00F0EDEF00F073
:1001B800000E1A6E010E196E3BEC0DF0000E4D6E1E
:1001C800000E4E6E000E4F6E000E506E010E0001B6
:1001D800CB6FBE51BD11BC1109E1330EBB5DD8A078
:1001E800F8EF00F0FAEF00F09BEF00F0000E1A6E47
:1001F800020E196E3BEC0DF0000E4D6E000E4E6EA9
:10020800000E4F6E000E506E020E0001CB6F9BEF7A
:1002180000F08590BE51BD11BC1109E1330EBB5DE4
:10022800D8A019EF01F01BEF01F09BEF00F0030ECF
:10023800CB6F9BEF00F08592C251C111C01109E14B
:10024800330EBF5DD8A02BEF01F02DEF01F09BEF2F
:1002580000F01BEF01F04DC0A3F04EC0A4F04FC05A
:10026800A5F050C0A6F053EC09F0859285900001E6
:10027800BF51C011C111C211D8A445EF01F047EF19
:1002880001F03BEF01F0BB51BC11BD11BE11D8A468
:1002980050EF01F052EF01F03BEF01F0000E4D6E10
:1002A800000E4E6E000E4F6E000E506E000ECB6F9D
:1002B800100EC76F270EC86F000EC96F000ECA6FE9
:1002C800C7514D5CC8514E58C9514F58CA51505822
:1002D800D8A071EF01F073EF01F064EF01F09BEF2C
:1002E80000F04C504B104A1009E1330E495CD8A07D
:1002F80080EF01F082EF01F0A3EF01F049504A10BE
:100308004B104C10D8A48BEF01F08DEF01F082EF69
:1003180001F0532A020E536494EF01F096EF01F0B6
:1003280098EF01F0000E536E000E4D6E000E4E6EEB
:10033800000E4F6E000E506E535053EC0EF000013D
:10034800C7514D5CC8514E58C9514F58CA515058A1
:10035800D8A0B1EF01F0B3EF01F075EF01F0000E96
:100368004D6E000E4E6E000E4F6E000E506EC9EFB1
:1003780001F0000ECB6F9BEF00F0050ECB6F9BEFEB
:1003880000F0070ECB6F9BEF00F05350B96FBA6BBC
:10039800BA51000AD8B4D3EF01F09BEF00F0B9517D
:1003A800000AD8B4BDEF01F0010AD8B4C1EF01F0DA
:1003B800030AD8B4C5EF01F09BEF00F0940E542463
:1003C800D96EDA6A000EDA22DF500001B96FB9512E
:1003D800196E1A6A3BEC0DF01FEF02F04C504B10EF
:1003E8004A1009E1330E495CD8A0FDEF01F0FFEF98
:1003F80001F01FEF02F049504A104B104C10D8A4DE
:1004080008EF02F00AEF02F0FFEF01F0542A040EA1
:10041800546411EF02F013EF02F015EF02F0000E32
:10042800546E000E4D6E000E4E6E000E4F6E000E96
:10043800506EE2EF01F00001C7514D5CC8514E58B3
:10044800C9514F58CA515058D8A02DEF02F02FEF7C
:1004580002F0F2EF01F0000E4D6E000E4E6E000E2F
:100468004F6E000E506E060ECB6F9BEF00F0940E91
:100478005424D96EDA6A000EDA22DF50B96FB95106
:10048800196E1A6A3BEC0DF0010E0B6E070E30EC7C
:100498000FF0000E0C6E0A0E0B6E54C00DF0F7EC48
:1004A8000DF0000E4D6E000E4E6E000E4F6E000EDB
:1004B800506EB80E0001C76F0B0EC86F000EC96FE3
:1004C800000ECA6FBDEF01F0990E5124D96EDA6A99
:1004D800000EDA22DF500001B96FB951196E1A6A9D
:1004E8003BEC0DF0A5EF02F04C504B104A1009E11F
:1004F800330E495CD8A083EF02F085EF02F0A5EF38
:1005080002F049504A104B104C10D8A48EEF02F05C
:1005180090EF02F085EF02F0512A030E516497EF35
:1005280002F099EF02F09BEF02F0000E516E000E00
:100538004D6E000E4E6E000E4F6E000E506E68EF40
:1005480002F00001C7514D5CC8514E58C9514F586F
:10055800CA515058D8A0B3EF02F0B5EF02F078EFC7
:1005680002F0000E4D6E000E4E6E000E4F6E000E25
:10057800506E080ECB6F9BEF00F0990E5124D96E88
:10058800DA6A000EDA22DF50B96FB951196E1A6AA9
:100598003BEC0DF0010E0B6E070E30EC0FF0000E69
:1005A8000C6E0B0E0B6E51C00DF0F7EC0DF055EF05
:1005B80002F00001CB51B96FBA6BBA51000AD8B436
:1005C800E8EF02F09BEF00F0B951000AD8B4CFEF82
:1005D80000F0010AD8B40DEF01F0030AD8B41FEFF8
:1005E80001F0010AD8B42FEF01F0070AD8B4A3EF3D
:1005F80001F0010AD8B4E2EF01F0030AD8B43BEFE6
:1006080002F0010AD8B468EF02F00F0AD8B4C1EFBB
:1006180002F09BEF00F027EF00F03550800B3E6EA4
:1006280035503524406E34AE1CEF03F01EEF03F056
:100638001FEF03F040804050D8B425EF03F027EFB8
:1006480003F03CEF03F04028D8A42DEF03F02FEF80
:1006580003F037EF03F0000E326E000E336E000E1B
:10066800346E000E356E348E000E356E44EF03F096
:10067800000E326E000E336E000E346E000E356EB4
:100688003950800B3F6E3E503F18D8B44EEF03F000
:1006980050EF03F051EF03F03E8C395039243F6E90
:1006A80038AE59EF03F05BEF03F05CEF03F03F80E7
:1006B8003F50D8B462EF03F064EF03F079EF03F032
:1006C8003F28D8A46AEF03F06CEF03F074EF03F04F
:1006D800000E366E000E376E000E386E000E396E44
:1006E800388E000E396E81EF03F0000E366E000E64
:1006F800376E000E386E000E396E40503F5CD8B031
:1007080088EF03F08AEF03F0B1EF03F03EAC8FEF10
:1007180003F091EF03F093EF03F0800E3E1A40C010
:1007280041F03FC040F041C03FF032C041F036C018
:1007380032F041C036F033C041F037C033F041C029
:1007480037F034C041F038C034F041C038F035C01B
:1007580041F039C035F041C039F0000E416E4050CB
:100768003FC03AF03B6A3A5E000E3B5A3BBEC6EFCA
:1007780003F03B5009E11A0E3A5CD8A0C6EF03F02B
:10078800C8EF03F0FFEF03F0325033103410351088
:10079800D8A4D1EF03F0D4EF03F0010ED5EF03F0A6
:1007A800000E416E000E326E000E336E000E346E77
:1007B800000E356E3FC040F008EF04F041A0E7EFAF
:1007C80003F0E9EF03F0EFEF03F0D89041300109AF
:1007D800416EF1EF03F0D890413232A0F6EF03F00A
:1007E800F8EF03F0F9EF03F0418E35343532343247
:1007F80033323232402A3F50405CD8A006EF04F032
:1008080008EF04F0E2EF03F03EBC0DEF04F00FEF49
:1008180004F04FEF04F04050D8A415EF04F017EFA0
:1008280004F021EF04F0000E326E000E336E000E5D
:10083800346E000E356E70EF05F0365032263750A4
:100848003322385034223950352235A02EEF04F0A7
:1008580030EF04F0DCEF04F041A035EF04F037EF9F
:1008680004F03DEF04F0D89041300109416E3FEFAC
:1008780004F0D890413232A044EF04F046EF04F07F
:1008880047EF04F0418E3534353234323332323268
:10089800402ADCEF04F03650325C37503358385079
:1008A80034583550800A3A6E3950800A3A58D8B0D0
:1008B80060EF04F062EF04F08DEF04F03250365C24
:1008C8003A6E335037583B6E345038583C6E35507A
:1008D80039583D6EFF0E3A24326EFF0E3B20336EC0
:1008E800FF0E3C20346EFF0E3D20356E800E3E1A02
:1008F800416C4150D8A483EF04F085EF04F095EFE4
:1009080004F0010E3226000E33223422352295EFF0
:1009180004F03650325E3750335A3850345A395012
:10092800355A3250331034103510D8A49EEF04F0E5
:10093800A0EF04F0D5EF04F04150D8A4A6EF04F0DE
:10094800A8EF04F0D5EF04F0000E326E000E336EFF
:10095800000E346E000E356E70EF05F0D89032360A
:1009680033363436353641AEBCEF04F0BEEF04F012
:10097800BFEF04F0328041A0C4EF04F0C6EF04F0EA
:10098800CAEF04F0D8804136CCEF04F0D890413655
:100998004050D8B4D2EF04F0D4EF04F0D5EF04F00F
:1009A800400634AEDAEF04F0DCEF04F0B2EF04F006
:1009B800000E3F6E41AEE3EF04F0E5EF04F0FDEF0B
:1009C80004F041C03AF07F0E3A16D8B4EEEF04F0C6
:1009D800F0EF04F0F4EF04F0010E3F6EFDEF04F0C9
:1009E80032A0F9EF04F0FBEF04F0FDEF04F0F0EFB4
:1009F80004F03F50D8B403EF05F005EF05F030EFF1
:100A080005F0010E3226000E33223422352235A09D
:100A180010EF05F012EF05F030EF05F032C03AF0B4
:100A280033C03BF034C03CF035C03DF03D343D327E
:100A38003C323B323A323AC032F03BC033F03CC031
:100A480034F03DC035F04028D8B42DEF05F02FEF35
:100A580005F030EF05F0402A4028D8B436EF05F00D
:100A680038EF05F040EF05F04050D8A43EEF05F010
:100A780040EF05F052EF05F0000E326E000E336EB7
:100A8800000E346E000E356E4050D8A44EEF05F0BF
:100A980050EF05F052EF05F0000E3E6E40A057EF04
:100AA80005F059EF05F05CEF05F0348E5DEF05F0C9
:100AB800349ED8904030356E3EAE65EF05F067EF56
:100AC80005F068EF05F0358E32C032F033C033F0F0
:100AD80034C034F035C035F012001C50800B256E40
:100AE8001C501C242B6E1BAE7CEF05F07EEF05F02E
:100AF8007FEF05F02B802B50D8B485EF05F087EFFA
:100B080005F09AEF05F02B28D8A48DEF05F08FEFAC
:100B180005F097EF05F0000E196E000E1A6E000E24
:100B28001B6E000E1C6E1B8EA2EF05F0000E196ED8
:100B3800000E1A6E000E1B6E000E1C6E2050800BED
:100B4800251A205020242A6E1FAEADEF05F0AFEF16
:100B580005F0B0EF05F02A802A50D8B4B6EF05F0BA
:100B6800B8EF05F0CBEF05F02A28D8A4BEEF05F0C2
:100B7800C0EF05F0C8EF05F0000E1D6E000E1E6EEA
:100B8800000E1F6E000E206E1F8ED3EF05F0000EB4
:100B98001D6E000E1E6E000E1F6E000E206E2A5077
:100BA800D8B4D9EF05F0DBEF05F0E3EF05F02B50F3
:100BB800D8A4E1EF05F0E3EF05F0EDEF05F0000E46
:100BC800196E000E1A6E000E1B6E000E1C6E85EF5D
:100BD80007F01F501902F3CF30F0F4CF31F0305046
:100BE800266E276A286A296A31502C6E2D6A2E6A69
:100BF8002F6A1E501A02F3CF30F0F4CF31F0305084
:100C08002626000E27222822292231502C26000EC3
:100C18002D222E222F221D501B02F3CF30F0F4CFAD
:100C280031F030502626000E272228222922315062
:100C38002C26000E2D222E222F2228C029F027C074
:100C480028F026C027F0266A1D501A02F3CF30F08C
:100C5800F4CF31F03050262631502722000E2822BA
:100C6800000E29221E501902F3CF30F0F4CF31F0D4
:100C78003050262631502722000E2822000E292225
:100C880028C029F027C028F026C027F0266A1D5062
:100C98001902F3CF30F0F4CF31F03050262631501E
:100CA8002722000E2822000E29221F501A02F3CFF5
:100CB80030F0F4CF31F030502C2631502D22000E78
:100CC8002E22000E2F221E501B02F3CF30F0F4CF3D
:100CD80031F030502C2631502D22000E2E22000EDD
:100CE8002F221F501B02F3CF30F0F4CF31F03050D9
:100CF800216E3150226E236A246A23C024F022C058
:100D080023F021C022F0216A21502C2622502D22C6
:100D180023502E2224502F2226C021F027C022F053
:100D280028C023F029C024F0190EA0EF06F0D890AF
:100D38002432233222322132E82E9BEF06F0215052
:100D48002C2622502D2223502E2224502F2228C018
:100D580029F027C028F026C027F0266A2A502BC081
:100D680021F0226A2126000E2222820E2124306ED2
:100D7800FF0E2220316ED6EF06F0D8902C362D3695
:100D88002E362F3629AECBEF06F0CDEF06F0CEEF9C
:100D980006F02C80D8902636273628362936300695
:100DA800D8A031062EAEDBEF06F0DDEF06F0C1EF7E
:100DB80006F0000E2A6E29AEE4EF06F0E6EF06F024
:100DC8000AEF07F0FF0E2614216EFF0E2714226E7D
:100DD800FF0E2814236E7F0E2914246E2150221032
:100DE80023102410D8B4FBEF06F0FDEF06F001EF56
:100DF80007F0010E2A6E0AEF07F02CA006EF07F0A5
:100E080008EF07F00AEF07F0FDEF06F02A50D8B414
:100E180010EF07F012EF07F036EF07F0010E2C265F
:100E2800000E2D222E222F222FA01DEF07F01FEFDC
:100E380007F036EF07F02CC021F02DC022F02EC0AD
:100E480023F02FC024F024342432233222322132DA
:100E580021C02CF022C02DF023C02EF024C02FF08A
:100E6800304A312A31BE41EF07F0315008E13028CD
:100E7800D8A041EF07F043EF07F04DEF07F0000E61
:100E88002C6E000E2D6E800E2E6E7F0E2F6E7BEF59
:100E980007F031BE5AEF07F0315006E13004D8B000
:100EA80058EF07F05AEF07F066EF07F0000E2C6EC8
:100EB800000E2D6E000E2E6E000E2F6E000E256E8B
:100EC8007BEF07F030C02BF0FF0E2C16FF0E2D160F
:100ED8007F0E2E16000E2F162BA075EF07F077EF5A
:100EE80007F078EF07F02E8ED8902B302F6E255014
:100EF8002F122CC019F02DC01AF02EC01BF02FC0D5
:100F08001CF012001C50800B296E1C501C24306EE3
:100F18001BAE91EF07F093EF07F094EF07F03080E6
:100F28003050D8B49AEF07F09CEF07F0B1EF07F014
:100F38003028D8A4A2EF07F0A4EF07F0ACEF07F031
:100F4800000E196E000E1A6E000E1B6E000E1C6E3F
:100F58001B8E000E1C6EB9EF07F0000E196E000E06
:100F68001A6E000E1B6E000E1C6E2050800B291A84
:100F780020502024316E1FAEC4EF07F0C6EF07F0F3
:100F8800C7EF07F031803150D8B4CDEF07F0CFEF7D
:100F980007F0E4EF07F03128D8A4D5EF07F0D7EF32
:100FA80007F0DFEF07F0000E1D6E000E1E6E000E3C
:100FB8001F6E000E206E1F8E000E206EECEF07F0E5
:100FC800000E1D6E000E1E6E000E1F6E000E206EAF
:100FD8001D501E101F102010D8A4F5EF07F0F7EFD2
:100FE80007F00FEF08F0000E196E000E1A6E000ED3
:100FF8001B6E000E1C6E800E1B127F0E1C122950D9
:101008001C1219C019F01AC01AF01BC01BF01CC022
:101018001CF052EF09F03050D8A415EF08F017EF84
:1010280008F021EF08F0000E196E000E1A6E000E7F
:101038001B6E000E1C6E52EF09F0315030C021F0CB
:10104800226A215E000E225A7F0E21242A6E000E8B
:1010580022202B6E19C025F01AC026F01BC027F0DD
:101068001CC028F0000E196E000E1A6E000E1B6EC2
:10107800000E1C6E000E2C6E000E2D6E000E2E6ED5
:10108800000E2F6E000E316E82EF08F03150D8B48A
:1010980050EF08F052EF08F069EF08F0D8902536C5
:1010A800263627362836D89019361A361B361C3677
:1010B8002FAE61EF08F063EF08F064EF08F01980D5
:1010C800D8902C362D362E362F361D50255C1E50C6
:1010D80026581F50275820502858D8A076EF08F0D7
:1010E80078EF08F081EF08F02F8C1D50255E1E5018
:1010F800265A1F50275A2050285A312A190E31646F
:1011080088EF08F08AEF08F04AEF08F0255026101B
:1011180027102810D8B493EF08F095EF08F0ADEF3A
:1011280008F02C80ADEF08F0D89019361A361B3627
:101138001C362FAEA2EF08F0A4EF08F0A5EF08F0D8
:101148001980D8902C362D362E362F362A06D8A060
:101158002B061BAEB2EF08F0B4EF08F098EF08F0DA
:10116800000E316E2FAEBBEF08F0BDEF08F0E1EFD7
:1011780008F0FF0E2C14216EFF0E2D14226EFF0EA8
:101188002E14236E7F0E2F14246E2150221023104C
:101198002410D8B4D2EF08F0D4EF08F0D8EF08F054
:1011A800010E316EE1EF08F019A0DDEF08F0DFEF76
:1011B80008F0E1EF08F0D4EF08F03150D8B4E7EFC9
:1011C80008F0E9EF08F00DEF09F0010E1926000EFE
:1011D8001A221B221C221CA0F4EF08F0F6EF08F0DC
:1011E8000DEF09F019C021F01AC022F01BC023F03E
:1011F8001CC024F02434243223322232213221C06C
:1012080019F022C01AF023C01BF024C01CF02A4A8F
:101218002B2A2BBE18EF09F02B5008E12A28D8A05A
:1012280018EF09F01AEF09F025EF09F0000E2B6E00
:101238002A68000E196E000E1A6E000E1B6E000E44
:101248001C6E2BBE32EF09F02B5006E12A04D8B0F1
:1012580030EF09F032EF09F040EF09F0000E2B6E85
:10126800000E2A6E000E196E000E1A6E000E1B6E0E
:10127800000E1C6E000E296E2AC030F030A047EF19
:1012880009F049EF09F04CEF09F01B8E4DEF09F01A
:101298001B9ED89030301C6E03EF08F01200A3C0DC
:1012A8000BF0A4C00CF0A5C00DF0A6C00EF0000E07
:1012B80052EC0AF00BC019F00CC01AF00DC01BF06C
:1012C8000EC01CF0000E1D6E000E1E6E7A0E1F6EF4
:1012D800440E206E86EC07F019C0A7F01AC0A8F0DB
:1012E8001BC0A9F01CC0AAF0990E5124D96EDA6A65
:1012F800000EDA22DF50486E48500B6E0C6A0D6AF9
:101308000E6A000E52EC0AF00BC019F00CC01AF06D
:101318000DC01BF00EC01CF0800E1D6E290E1E6E37
:101328001D0E1F6E480E206E86EC07F019C0ABF03C
:101338001AC0ACF01BC0ADF01CC0AEF0A7C019F0CD
:10134800A8C01AF0A9C01BF0AAC01CF0000E1D6EA0
:10135800000E1E6E610E1F6E450E206E86EC07F0A5
:1013680019C0AFF01AC0B0F01BC0B1F01CC0B2F089
:10137800ABC019F0ACC01AF0ADC01BF0AEC01CF089
:10138800AFC01DF0B0C01EF0B1C01FF0B2C020F059
:1013980086EC07F019C0B3F01AC0B4F01BC0B5F062
:1013A8001CC0B6F0000E366E000E376E000E386E9A
:1013B8003F0E396EB3C01DF0B4C01EF0B5C01FF0AB
:1013C800B6C020F0940E5424D96EDA6A000EDA22E0
:1013D800DF50486E48500B6E0C6A0D6A0E6A000E9C
:1013E80052EC0AF00BC019F00CC01AF00DC01BF03B
:1013F8000EC01CF071EC05F019C032F01AC033F0C1
:101408001BC034F01CC035F011EC03F032C042F0C0
:1014180033C043F034C044F035C045F0B8EC0BF0AD
:1014280042C0B7F043C0B8F0020E0B6E020E30ECAB
:101438000FF00001B85109E1320EB75DD8A027EFCF
:101448000AF029EF0AF03BEF0AF0B85107E1460E1F
:10145800B75DD8B032EF0AF034EF0AF03BEF0AF08C
:10146800070E0B6E070E30EC0FF04BEF0AF0B85179
:1014780009E1460EB75DD8A044EF0AF046EF0AF03E
:101488004BEF0AF0010E0B6E070E30EC0FF0B7C0F1
:1014980019F0B8C01AF03BEC0DF01200136E13509F
:1014A800D8B459EF0AF05BEF0AF07DEF0AF00EBEF0
:1014B80062EF0AF060EF0AF07DEF0AF00BC00FF060
:1014C8000CC010F00DC011F00EC012F00F1E101E4F
:1014D800111E121E0F2A000E1022112212220FC0F6
:1014E80015F010C016F011C017F012C018F085EFF3
:1014F8000AF00BC015F00CC016F00DC017F00EC0A6
:1015080018F00B500C100D100E10D8A48EEF0AF026
:1015180090EF0AF09AEF0AF0000E0B6E000E0C6EB8
:10152800000E0D6E000E0E6E2BEF0BF0960E146E65
:10153800A4EF0AF0142AD89018321732163215324E
:10154800000E15140F6E000E1614106E000E1714F0
:10155800116EFE0E1814126E0F501010111012108A
:10156800D8A4B9EF0AF0BBEF0AF09EEF0AF0C9EF72
:101578000AF0142A010E1526000E16221722182228
:10158800D8901832173216321532000E15140F6E15
:10159800000E1614106E000E1714116EFF0E18149C
:1015A800126E0F50101011101210D8A4DEEF0AF0AE
:1015B800E0EF0AF0BDEF0AF0E8EF0AF01406D89061
:1015C800153616361736183617BEEDEF0AF0EFEF58
:1015D8000AF0F7EF0AF0020E1460F5EF0AF0F7EFE1
:1015E8000AF0E2EF0AF014B0FCEF0AF0FEEF0AF09E
:1015F800FFEF0AF0179ED890143214C00FF0106A4B
:10160800116A126A0FC012F0116A106A0F6A0F503D
:10161800151210501612115017121250181213509A
:10162800D8B419EF0BF01BEF0BF023EF0BF00EBE45
:1016380022EF0BF020EF0BF023EF0BF0188E15C004
:101648000BF016C00CF017C00DF018C00EF0120009
:101658000E01C993010E4D26000E4E224F22502234
:101668008CB439EF0BF03BEF0BF044EF0BF0010EAD
:101678000001BF27000EC023C123C2234DEF0BF08A
:10168800000E0001BF6F000EC06F000EC16F000E8C
:10169800C26F8CB652EF0BF054EF0BF05CEF0BF00F
:1016A800010EBB27000EBC23BD23BE2364EF0BF045
:1016B800000EBB6F000EBC6F000EBD6F000EBE6F3C
:1016C8008DB069EF0BF06BEF0BF073EF0BF0010EC1
:1016D8004926000E4A224B224C227BEF0BF0000ECB
:1016E800496E000E4A6E000E4B6E000E4C6EC3C063
:1016F80005F0C4C006F0C5C007F0C6C008F0C32B8B
:10170800000EC423C523C62308500710061009E19C
:10171800FB0E055CD8A093EF0BF095EF0BF0B7EF3D
:101728000BF0000EC36F000EC46F000EC56F000EE5
:10173800C66F521E5250D8B4A4EF0BF0A6EF0BF0B0
:10174800B4EF0BF09E519D19D8B4ADEF0BF0AFEF8D
:101758000BF0B4EF0BF09D511FEC0FF0B7EF0BF04F
:101768009E511FEC0FF0120044344534476E475029
:10177800D8A4C1EF0BF0C3EF0BF0CDEF0BF0000EC8
:10178800426E000E436E000E446E000E456E3BEF37
:101798000CF042C09FF043C0A0F044C0A1F045C087
:1017A800A2F0200EDEEF0BF00001D890A233A13397
:1017B800A0339F33E82ED8EF0BF09F51466E448E2E
:1017C800FF0E4216FF0E4316FF0E4416000E451676
:1017D800960E475E47BEF5EF0BF0F3EF0BF00BEFFD
:1017E8000CF04750800A970FD8B0FDEF0BF0FFEFD1
:1017F8000BF001EF0CF0C3EF0BF0D89045324432F8
:1018080043324232473E01EF0CF023EF0CF01F0E3B
:10181800476411EF0CF013EF0CF01BEF0CF0C3EF63
:101828000BF0D89042364336443645364706475083
:10183800D8A421EF0CF023EF0CF015EF0CF0465074
:10184800D8B429EF0CF02BEF0CF033EF0CF0451E59
:10185800441E431E426C000E43224422452242C0CD
:1018680042F043C043F044C044F045C045F0120084
:101878000B6E000E0D6E82900BA045EF0CF047EF3B
:101888000CF04AEF0CF082824BEF0CF08292D89069
:101898000B326A0EE82EFED700D082806A0EE82E40
:1018A800FED700D00D2A070E0D645DEF0CF05FEF38
:1018B8000CF03FEF0CF082908782350EE82EFED7B1
:1018C80000F0000E8CB2010E0C6E0C50D8A46FEF15
:1018D8000CF071EF0CF073EF0CF087928292350EDA
:1018E800E82EFED700F08280879282926A0EE82E58
:1018F800FED700D01200016E000E036E829001A088
:1019080088EF0CF08AEF0CF08DEF0CF082828EEFEE
:101918000CF08292D89001326A0EE82EFED700D0E1
:1019280082806A0EE82EFED700D0032A070E0364D1
:10193800A0EF0CF0A2EF0CF082EF0CF082908782FF
:10194800350EE82EFED700F0000E8CB2010E026EA6
:101958000250D8A4B2EF0CF0B4EF0CF0B6EF0CF0D4
:1019680087928292350EE82EFED700F08280879209
:1019780082926A0EE82EFED700D01200000E866E04
:10198800000E856E000E826E000E836E000E846E51
:10199800070E8B6EFC0E876E8868DF0E896EFC0E54
:1019A8008A6EFC0E0F01216FCF0E1C6FFE0E146F96
:1019B800070E296FF00E0C6F000E206F000E286FB7
:1019C800010E136F0F0E0B6F100E1B6F000E276F9B
:1019D800000E0A6F000E126F000E1A6F000E1F6FB6
:1019E8000969116919691E69070E266F0869106966
:1019F80018691D690F0E256F1200000E106E000E7B
:101A08000F6E0D500E10D8B40CEF0DF00EEF0DF058
:101A180036EF0DF0010E116E16EF0DF0D8900D3661
:101A28000E36112A0EAE1BEF0DF01DEF0DF012EF62
:101A38000DF0D8900F3610360D500B5C0E500C5828
:101A4800D8A029EF0DF02BEF0DF030EF0DF00D5071
:101A58000B5E0E500C5A0F80D8900E320D32112E9C
:101A68001DEF0DF00FC00BF010C00CF01200000EAF
:101A78001B6E010E1C6E1C50020D800EF324D96ED5
:101A8800000EF420DA6EDECF0DF0DDCF0EF019C0B7
:101A98000BF01AC00CF001EC0DF00BC012F00CC0EA
:101AA80013F0000E156E0A0E146E73EC0DF0600E36
:101AB8001224D96E000E1320DA6EDF50176E1B50F9
:101AC80084EC0EF01B2A1C2A1C50800A7C0FD8A01C
:101AD80070EF0DF072EF0DF03FEF0DF012001450A3
:101AE8001510D8B47AEF0DF07CEF0DF0A0EF0DF0E3
:101AF800010E166E84EF0DF0D89014361536162A9E
:101B080015AE89EF0DF08BEF0DF080EF0DF014504E
:101B1800125C15501358D8A094EF0DF096EF0DF005
:101B28009AEF0DF01450125E1550135AD8901532D2
:101B38001432162E8BEF0DF012C012F013C013F0F2
:101B48001200020E0B6E020E30EC0FF098EC0EF045
:101B5800000E1A6E400E176E1A5084EC0EF01A2AF8
:101B68001A50800A7D0FD8A0BCEF0DF0BEEF0DF023
:101B7800AEEF0DF0000E4D6E000E4E6E000E4F6E65
:101B8800000E506E85808582C80E0001C76FAF0EAB
:101B9800C86F000EC96F000ECA6F000ECB6F000E23
:101BA800536E1200300EF66E1C0EF76E000EF86EB5
:101BB80000EE60F010EE3FF00900F5CFEEFFE550C3
:101BC800E150FAE100EEBBF0110EEE6AE806FDE125
:101BD80000EE49F00B0EEE6AE806FDE155905592CD
:101BE800000129EF00F0000EF2BE010E0E6E310E5C
:101BF8007B6E0C507A6E0BC079FF0DC07CFF7F8E18
:101C0800F29E550E816EAA0E816E808880B80FEF05
:101C18000EF011EF0EF00AEF0EF00EB002D0F29EA9
:101C280001D0F28E7F9E12003F065B4F666D7D07E6
:101C38007F6F777C395E79713F065B4F666D7D07F4
:101C48007F6F777C395E7971E80364000A000100D0
:101C58000100E80364000A00010001004C305794B9
:071C6800DC644B321E020296
:101C70000E01C9930001CC51CD11CE11D8B443EF60
:101C80000EF045EF0EF052EF0EF002D852EF0EF0CC
:101C90000500FA6ECC51FD6ECD51FE6ECE51FF6E39
:101CA000FA50120012001A6E98EC0EF0700E1A2400
:101CB000D96EDA6A000EDA22DF50176E010E84EC5C
:101CC0000EF0490E176E000E84EC0EF0000E176E2B
:101CD000020E84EC0EF01200010EBE6E000EBD6E00
:101CE000000EBF6E7C0EBB6E000EBA6E0E01C99365
:101CF000C183740E0B6E1E0E0C6E000E0D6E29EC61
:101D00000FF0F00EBC6E1200186EBCEC0EF0440E1C
:101D10003CEC0CF0ABEC0EF0BCEC0EF01850C00933
:101D20003CEC0CF017503CEC0CF0ABEC0EF012005D
:101D3000000E196E000E176E195084EC0EF0192A61
:101D40001950800A7C0FD8A0A8EF0EF0AAEF0EF071
:101D50009AEF0EF01200829082926A0EE82EFED761
:101D600000D08280350EE82EFED700F08282350E3C
:101D7000E82EFED700F0120082808282350EE82E17
:101D8000FED700F08292350EE82EFED700F082904A
:101D9000350EE82EFED700F01200829082926A0E75
:101DA000E82EFED700D08280350EE82EFED700F058
:101DB0008282350EE82EFED700F0120082808282E9
:101DC000350EE82EFED700F08292350EE82EFED7B3
:101DD00000F08290350EE82EFED700F01200000EC3
:101DE0000E01DC6F000EDD6F000EDE6F000EDF6F88
:101DF000000EE06F000EE16F1200600E0E01D36F57
:101E0000000ED56F000ED76F080ED96F000ED86F79
:101E1000120038EC0FF0EFEC0EF0C2EC0CF0FDEC21
:101E20000EF06CEC0EF01200310E7B6E0C507A6EE0
:101E30000BC079FF808000F000F07C501200046E2F
:101E4000DEEC0EF00450880F7FEC0CF0CDEC0EF0C1
:101E500012000BC0CCF00CC0CDF00DC0CEF01200C3
:101E60000C6E0CC09EF00BC09DF01200BC8E1200D8
:061E7000F29A12001200BC
:020000040020DA
:10000000FFFFFFFFFFFFFFFFFFFFFFFFFFFFFFFF00
:10001000FFFFFFFFFFFFFFFFFFFFFFFFFFFFFFFFF0
:10002000FFFFFFFFFFFFFFFFFFFFFFFFFFFFFFFFE0
:10003000FFFFFFFFFFFFFFFFFFFFFFFFFFFFFFFFD0
:10004000FFFFFFFFFFFFFFFFFFFFFFFFFFFFFFFFC0
:10005000FFFFFFFFFFFFFFFFFFFFFFFFFFFFFFFFB0
:10006000FFFFFFFFFFFFFFFFFFFFFFFFFFFFFFFFA0
:10007000FFFFFFFFFFFFFFFFFFFFFFFFFFFFFFFF90
:10008000FFFFFFFFFFFFFFFFFFFFFFFFFFFFFFFF80
:10009000FFFFFFFFFFFFFFFFFFFFFFFFFFFFFFFF70
:1000A000FFFFFFFFFFFFFFFFFFFFFFFFFFFFFFFF60
:1000B000FFFFFFFFFFFFFFFFFFFFFFFFFFFFFFFF50
:1000C000FFFFFFFFFFFFFFFFFFFFFFFFFFFFFFFF40
:1000D000FFFFFFFFFFFFFFFFFFFFFFFFFFFFFFFF30
:1000E000FFFFFFFFFFFFFFFFFFFFFFFFFFFFFFFF20
:1000F000FFFFFFFFFFFFFFFFFFFFFFFFFFFFFFFF10
:020000040030CA
:0C0000008CFFFFFF9FFFFFFFFFFFFFFFD3
:00000001FF
